{
    "_format": "hh-sol-artifact-1",
    "contractName": "Transactions",
    "sourceName": "contracts/Transactions.sol",
    "abi": [
        {
            "anonymous": false,
            "inputs": [
                {
                    "indexed": false,
                    "internalType": "address",
                    "name": "from",
                    "type": "address"
                },
                {
                    "indexed": false,
                    "internalType": "address",
                    "name": "receiver",
                    "type": "address"
                },
                {
                    "indexed": false,
                    "internalType": "uint256",
                    "name": "amount",
                    "type": "uint256"
                },
                {
                    "indexed": false,
                    "internalType": "string",
                    "name": "message",
                    "type": "string"
                },
                {
                    "indexed": false,
                    "internalType": "uint256",
                    "name": "timestamp",
                    "type": "uint256"
                },
                {
                    "indexed": false,
                    "internalType": "string",
                    "name": "keyword",
                    "type": "string"
                }
            ],
            "name": "Transfer",
            "type": "event"
        },
        {
            "inputs": [
                {
                    "internalType": "address payable",
                    "name": "receiver",
                    "type": "address"
                },
                {
                    "internalType": "string",
                    "name": "message",
                    "type": "string"
                },
                {
                    "internalType": "uint256",
                    "name": "amount",
                    "type": "uint256"
                },
                {
                    "internalType": "string",
                    "name": "keyword",
                    "type": "string"
                }
            ],
            "name": "addToBlockchain",
            "outputs": [],
            "stateMutability": "nonpayable",
            "type": "function"
        },
        {
            "inputs": [],
            "name": "getAllTransactions",
            "outputs": [
                {
                    "components": [
                        {
                            "internalType": "address",
                            "name": "sender",
                            "type": "address"
                        },
                        {
                            "internalType": "address",
                            "name": "receiver",
                            "type": "address"
                        },
                        {
                            "internalType": "uint256",
                            "name": "amount",
                            "type": "uint256"
                        },
                        {
                            "internalType": "string",
                            "name": "message",
                            "type": "string"
                        },
                        {
                            "internalType": "uint256",
                            "name": "timestamp",
                            "type": "uint256"
                        },
                        {
                            "internalType": "string",
                            "name": "keyword",
                            "type": "string"
                        }
                    ],
                    "internalType": "struct Transactions.TransferStruct[]",
                    "name": "",
                    "type": "tuple[]"
                }
            ],
            "stateMutability": "view",
            "type": "function"
        },
        {
            "inputs": [],
            "name": "getTransactionCount",
            "outputs": [
                {
                    "internalType": "uint256",
                    "name": "",
                    "type": "uint256"
                }
            ],
            "stateMutability": "view",
            "type": "function"
        },
        {
            "inputs": [
                {
                    "internalType": "uint256",
                    "name": "",
                    "type": "uint256"
                }
            ],
            "name": "transactions",
            "outputs": [
                {
                    "internalType": "address",
                    "name": "sender",
                    "type": "address"
                },
                {
                    "internalType": "address",
                    "name": "receiver",
                    "type": "address"
                },
                {
                    "internalType": "uint256",
                    "name": "amount",
                    "type": "uint256"
                },
                {
                    "internalType": "string",
                    "name": "message",
                    "type": "string"
                },
                {
                    "internalType": "uint256",
                    "name": "timestamp",
                    "type": "uint256"
                },
                {
                    "internalType": "string",
                    "name": "keyword",
                    "type": "string"
                }
            ],
            "stateMutability": "view",
            "type": "function"
        }
    ],
    "bytecode": "0x608060405234801561001057600080fd5b50610ede806100206000396000f3fe608060405234801561001057600080fd5b506004361061004c5760003560e01c806327506f53146100515780632e7700f01461006f5780639ace38c21461008d578063b384a875146100c2575b600080fd5b6100596100de565b604051610066919061096e565b60405180910390f35b610077610321565b604051610084919061099f565b60405180910390f35b6100a760048036038101906100a291906109fa565b61032a565b6040516100b996959493929190610a80565b60405180910390f35b6100dc60048036038101906100d79190610c62565b6104c6565b005b60606001805480602002602001604051908101604052809291908181526020016000905b8282101561031857838290600052602060002090600602016040518060c00160405290816000820160009054906101000a900473ffffffffffffffffffffffffffffffffffffffff1673ffffffffffffffffffffffffffffffffffffffff1673ffffffffffffffffffffffffffffffffffffffff1681526020016001820160009054906101000a900473ffffffffffffffffffffffffffffffffffffffff1673ffffffffffffffffffffffffffffffffffffffff1673ffffffffffffffffffffffffffffffffffffffff168152602001600282015481526020016003820180546101eb90610d30565b80601f016020809104026020016040519081016040528092919081815260200182805461021790610d30565b80156102645780601f1061023957610100808354040283529160200191610264565b820191906000526020600020905b81548152906001019060200180831161024757829003601f168201915b505050505081526020016004820154815260200160058201805461028790610d30565b80601f01602080910402602001604051908101604052809291908181526020018280546102b390610d30565b80156103005780601f106102d557610100808354040283529160200191610300565b820191906000526020600020905b8154815290600101906020018083116102e357829003601f168201915b50505050508152505081526020019060010190610102565b50505050905090565b60008054905090565b6001818154811061033a57600080fd5b90600052602060002090600602016000915090508060000160009054906101000a900473ffffffffffffffffffffffffffffffffffffffff16908060010160009054906101000a900473ffffffffffffffffffffffffffffffffffffffff16908060020154908060030180546103af90610d30565b80601f01602080910402602001604051908101604052809291908181526020018280546103db90610d30565b80156104285780601f106103fd57610100808354040283529160200191610428565b820191906000526020600020905b81548152906001019060200180831161040b57829003601f168201915b50505050509080600401549080600501805461044390610d30565b80601f016020809104026020016040519081016040528092919081815260200182805461046f90610d30565b80156104bc5780601f10610491576101008083540402835291602001916104bc565b820191906000526020600020905b81548152906001019060200180831161049f57829003601f168201915b5050505050905086565b6000808154809291906104d890610d91565b919050555060016040518060c001604052803373ffffffffffffffffffffffffffffffffffffffff1681526020018673ffffffffffffffffffffffffffffffffffffffff16815260200184815260200185815260200142815260200183815250908060018154018082558091505060019003906000526020600020906006020160009091909190915060008201518160000160006101000a81548173ffffffffffffffffffffffffffffffffffffffff021916908373ffffffffffffffffffffffffffffffffffffffff16021790555060208201518160010160006101000a81548173ffffffffffffffffffffffffffffffffffffffff021916908373ffffffffffffffffffffffffffffffffffffffff160217905550604082015181600201556060820151816003019080519060200190610615929190610686565b506080820151816004015560a082015181600501908051906020019061063c929190610686565b5050507f416cfa4330a4565f45c2fd2dd4826a83a37443aba2ce6f79477c7355afac35fa33858486428660405161067896959493929190610e39565b60405180910390a150505050565b82805461069290610d30565b90600052602060002090601f0160209004810192826106b457600085556106fb565b82601f106106cd57805160ff19168380011785556106fb565b828001600101855582156106fb579182015b828111156106fa5782518255916020019190600101906106df565b5b509050610708919061070c565b5090565b5b8082111561072557600081600090555060010161070d565b5090565b600081519050919050565b600082825260208201905092915050565b6000819050602082019050919050565b600073ffffffffffffffffffffffffffffffffffffffff82169050919050565b600061078082610755565b9050919050565b61079081610775565b82525050565b6000819050919050565b6107a981610796565b82525050565b600081519050919050565b600082825260208201905092915050565b60005b838110156107e95780820151818401526020810190506107ce565b838111156107f8576000848401525b50505050565b6000601f19601f8301169050919050565b600061081a826107af565b61082481856107ba565b93506108348185602086016107cb565b61083d816107fe565b840191505092915050565b600060c0830160008301516108606000860182610787565b5060208301516108736020860182610787565b50604083015161088660408601826107a0565b506060830151848203606086015261089e828261080f565b91505060808301516108b360808601826107a0565b5060a083015184820360a08601526108cb828261080f565b9150508091505092915050565b60006108e48383610848565b905092915050565b6000602082019050919050565b600061090482610729565b61090e8185610734565b93508360208202850161092085610745565b8060005b8581101561095c578484038952815161093d85826108d8565b9450610948836108ec565b925060208a01995050600181019050610924565b50829750879550505050505092915050565b6000602082019050818103600083015261098881846108f9565b905092915050565b61099981610796565b82525050565b60006020820190506109b46000830184610990565b92915050565b6000604051905090565b600080fd5b600080fd5b6109d781610796565b81146109e257600080fd5b50565b6000813590506109f4816109ce565b92915050565b600060208284031215610a1057610a0f6109c4565b5b6000610a1e848285016109e5565b91505092915050565b610a3081610775565b82525050565b600082825260208201905092915050565b6000610a52826107af565b610a5c8185610a36565b9350610a6c8185602086016107cb565b610a75816107fe565b840191505092915050565b600060c082019050610a956000830189610a27565b610aa26020830188610a27565b610aaf6040830187610990565b8181036060830152610ac18186610a47565b9050610ad06080830185610990565b81810360a0830152610ae28184610a47565b9050979650505050505050565b6000610afa82610755565b9050919050565b610b0a81610aef565b8114610b1557600080fd5b50565b600081359050610b2781610b01565b92915050565b600080fd5b600080fd5b7f4e487b7100000000000000000000000000000000000000000000000000000000600052604160045260246000fd5b610b6f826107fe565b810181811067ffffffffffffffff82111715610b8e57610b8d610b37565b5b80604052505050565b6000610ba16109ba565b9050610bad8282610b66565b919050565b600067ffffffffffffffff821115610bcd57610bcc610b37565b5b610bd6826107fe565b9050602081019050919050565b82818337600083830152505050565b6000610c05610c0084610bb2565b610b97565b905082815260208101848484011115610c2157610c20610b32565b5b610c2c848285610be3565b509392505050565b600082601f830112610c4957610c48610b2d565b5b8135610c59848260208601610bf2565b91505092915050565b60008060008060808587031215610c7c57610c7b6109c4565b5b6000610c8a87828801610b18565b945050602085013567ffffffffffffffff811115610cab57610caa6109c9565b5b610cb787828801610c34565b9350506040610cc8878288016109e5565b925050606085013567ffffffffffffffff811115610ce957610ce86109c9565b5b610cf587828801610c34565b91505092959194509250565b7f4e487b7100000000000000000000000000000000000000000000000000000000600052602260045260246000fd5b60006002820490506001821680610d4857607f821691505b60208210811415610d5c57610d5b610d01565b5b50919050565b7f4e487b7100000000000000000000000000000000000000000000000000000000600052601160045260246000fd5b6000610d9c82610796565b91507fffffffffffffffffffffffffffffffffffffffffffffffffffffffffffffffff821415610dcf57610dce610d62565b5b600182019050919050565b6000819050919050565b6000610dff610dfa610df584610755565b610dda565b610755565b9050919050565b6000610e1182610de4565b9050919050565b6000610e2382610e06565b9050919050565b610e3381610e18565b82525050565b600060c082019050610e4e6000830189610a27565b610e5b6020830188610e2a565b610e686040830187610990565b8181036060830152610e7a8186610a47565b9050610e896080830185610990565b81810360a0830152610e9b8184610a47565b905097965050505050505056fea26469706673582212202b66e5fbe187ad830aa3e5fda5ae3b9c932e1d89fe89f2a72adb3b4b4eba49c264736f6c63430008090033",
    "linkReferences": {},
    "deployedLinkReferences": {}
}